{
  "_format": "hh-sol-artifact-1",
  "contractName": "Malthusia",
  "sourceName": "contracts/Malthusia.sol",
  "abi": [
    {
      "inputs": [],
      "stateMutability": "nonpayable",
      "type": "constructor"
    },
    {
      "anonymous": false,
      "inputs": [
        {
          "indexed": true,
          "internalType": "address",
          "name": "owner",
          "type": "address"
        },
        {
          "indexed": true,
          "internalType": "address",
          "name": "approved",
          "type": "address"
        },
        {
          "indexed": true,
          "internalType": "uint256",
          "name": "tokenId",
          "type": "uint256"
        }
      ],
      "name": "Approval",
      "type": "event"
    },
    {
      "anonymous": false,
      "inputs": [
        {
          "indexed": true,
          "internalType": "address",
          "name": "owner",
          "type": "address"
        },
        {
          "indexed": true,
          "internalType": "address",
          "name": "operator",
          "type": "address"
        },
        {
          "indexed": false,
          "internalType": "bool",
          "name": "approved",
          "type": "bool"
        }
      ],
      "name": "ApprovalForAll",
      "type": "event"
    },
    {
      "anonymous": false,
      "inputs": [
        {
          "indexed": true,
          "internalType": "uint256",
          "name": "tokenId",
          "type": "uint256"
        },
        {
          "indexed": false,
          "internalType": "uint256",
          "name": "value",
          "type": "uint256"
        },
        {
          "indexed": false,
          "internalType": "uint256",
          "name": "start_block",
          "type": "uint256"
        },
        {
          "indexed": false,
          "internalType": "string",
          "name": "name",
          "type": "string"
        },
        {
          "indexed": false,
          "internalType": "address",
          "name": "creator",
          "type": "address"
        },
        {
          "indexed": false,
          "internalType": "string",
          "name": "code",
          "type": "string"
        }
      ],
      "name": "Creation",
      "type": "event"
    },
    {
      "anonymous": false,
      "inputs": [
        {
          "indexed": true,
          "internalType": "address",
          "name": "from",
          "type": "address"
        },
        {
          "indexed": true,
          "internalType": "address",
          "name": "to",
          "type": "address"
        },
        {
          "indexed": true,
          "internalType": "uint256",
          "name": "tokenId",
          "type": "uint256"
        }
      ],
      "name": "Transfer",
      "type": "event"
    },
    {
      "inputs": [
        {
          "internalType": "address",
          "name": "to",
          "type": "address"
        },
        {
          "internalType": "uint256",
          "name": "tokenId",
          "type": "uint256"
        }
      ],
      "name": "approve",
      "outputs": [],
      "stateMutability": "nonpayable",
      "type": "function"
    },
    {
      "inputs": [
        {
          "internalType": "address",
          "name": "owner",
          "type": "address"
        }
      ],
      "name": "balanceOf",
      "outputs": [
        {
          "internalType": "uint256",
          "name": "",
          "type": "uint256"
        }
      ],
      "stateMutability": "view",
      "type": "function"
    },
    {
      "inputs": [
        {
          "internalType": "address",
          "name": "recipient",
          "type": "address"
        },
        {
          "internalType": "string",
          "name": "tokenURI",
          "type": "string"
        },
        {
          "internalType": "string",
          "name": "name",
          "type": "string"
        },
        {
          "internalType": "string",
          "name": "code",
          "type": "string"
        }
      ],
      "name": "createRobot",
      "outputs": [
        {
          "internalType": "uint256",
          "name": "",
          "type": "uint256"
        }
      ],
      "stateMutability": "payable",
      "type": "function"
    },
    {
      "inputs": [
        {
          "internalType": "uint256",
          "name": "tokenId",
          "type": "uint256"
        }
      ],
      "name": "getApproved",
      "outputs": [
        {
          "internalType": "address",
          "name": "",
          "type": "address"
        }
      ],
      "stateMutability": "view",
      "type": "function"
    },
    {
      "inputs": [
        {
          "internalType": "address",
          "name": "owner",
          "type": "address"
        },
        {
          "internalType": "address",
          "name": "operator",
          "type": "address"
        }
      ],
      "name": "isApprovedForAll",
      "outputs": [
        {
          "internalType": "bool",
          "name": "",
          "type": "bool"
        }
      ],
      "stateMutability": "view",
      "type": "function"
    },
    {
      "inputs": [],
      "name": "name",
      "outputs": [
        {
          "internalType": "string",
          "name": "",
          "type": "string"
        }
      ],
      "stateMutability": "view",
      "type": "function"
    },
    {
      "inputs": [
        {
          "internalType": "uint256",
          "name": "tokenId",
          "type": "uint256"
        }
      ],
      "name": "ownerOf",
      "outputs": [
        {
          "internalType": "address",
          "name": "",
          "type": "address"
        }
      ],
      "stateMutability": "view",
      "type": "function"
    },
    {
      "inputs": [
        {
          "internalType": "address",
          "name": "from",
          "type": "address"
        },
        {
          "internalType": "address",
          "name": "to",
          "type": "address"
        },
        {
          "internalType": "uint256",
          "name": "tokenId",
          "type": "uint256"
        }
      ],
      "name": "safeTransferFrom",
      "outputs": [],
      "stateMutability": "nonpayable",
      "type": "function"
    },
    {
      "inputs": [
        {
          "internalType": "address",
          "name": "from",
          "type": "address"
        },
        {
          "internalType": "address",
          "name": "to",
          "type": "address"
        },
        {
          "internalType": "uint256",
          "name": "tokenId",
          "type": "uint256"
        },
        {
          "internalType": "bytes",
          "name": "_data",
          "type": "bytes"
        }
      ],
      "name": "safeTransferFrom",
      "outputs": [],
      "stateMutability": "nonpayable",
      "type": "function"
    },
    {
      "inputs": [
        {
          "internalType": "address",
          "name": "operator",
          "type": "address"
        },
        {
          "internalType": "bool",
          "name": "approved",
          "type": "bool"
        }
      ],
      "name": "setApprovalForAll",
      "outputs": [],
      "stateMutability": "nonpayable",
      "type": "function"
    },
    {
      "inputs": [
        {
          "internalType": "bytes4",
          "name": "interfaceId",
          "type": "bytes4"
        }
      ],
      "name": "supportsInterface",
      "outputs": [
        {
          "internalType": "bool",
          "name": "",
          "type": "bool"
        }
      ],
      "stateMutability": "view",
      "type": "function"
    },
    {
      "inputs": [],
      "name": "symbol",
      "outputs": [
        {
          "internalType": "string",
          "name": "",
          "type": "string"
        }
      ],
      "stateMutability": "view",
      "type": "function"
    },
    {
      "inputs": [
        {
          "internalType": "uint256",
          "name": "tokenId",
          "type": "uint256"
        }
      ],
      "name": "tokenURI",
      "outputs": [
        {
          "internalType": "string",
          "name": "",
          "type": "string"
        }
      ],
      "stateMutability": "view",
      "type": "function"
    },
    {
      "inputs": [
        {
          "internalType": "address",
          "name": "from",
          "type": "address"
        },
        {
          "internalType": "address",
          "name": "to",
          "type": "address"
        },
        {
          "internalType": "uint256",
          "name": "tokenId",
          "type": "uint256"
        }
      ],
      "name": "transferFrom",
      "outputs": [],
      "stateMutability": "nonpayable",
      "type": "function"
    }
  ],
  "bytecode": "0x60806040523480156200001157600080fd5b506040518060400160405280600981526020017f4d616c74687573696100000000000000000000000000000000000000000000008152506040518060400160405280600481526020017f4d4c544800000000000000000000000000000000000000000000000000000000815250816000908051906020019062000096929190620000b8565b508060019080519060200190620000af929190620000b8565b505050620001cd565b828054620000c69062000197565b90600052602060002090601f016020900481019282620000ea576000855562000136565b82601f106200010557805160ff191683800117855562000136565b8280016001018555821562000136579182015b828111156200013557825182559160200191906001019062000118565b5b50905062000145919062000149565b5090565b5b80821115620001645760008160009055506001016200014a565b5090565b7f4e487b7100000000000000000000000000000000000000000000000000000000600052602260045260246000fd5b60006002820490506001821680620001b057607f821691505b60208210811415620001c757620001c662000168565b5b50919050565b612e0c80620001dd6000396000f3fe6080604052600436106100dd5760003560e01c806370a082311161007f578063a22cb46511610059578063a22cb465146102d7578063b88d4fde14610300578063c87b56dd14610329578063e985e9c514610366576100dd565b806370a082311461023f578063880e9e781461027c57806395d89b41146102ac576100dd565b8063095ea7b3116100bb578063095ea7b31461018757806323b872dd146101b057806342842e0e146101d95780636352211e14610202576100dd565b806301ffc9a7146100e257806306fdde031461011f578063081812fc1461014a575b600080fd5b3480156100ee57600080fd5b5061010960048036038101906101049190611a15565b6103a3565b6040516101169190611a5d565b60405180910390f35b34801561012b57600080fd5b50610134610485565b6040516101419190611b11565b60405180910390f35b34801561015657600080fd5b50610171600480360381019061016c9190611b69565b610517565b60405161017e9190611bd7565b60405180910390f35b34801561019357600080fd5b506101ae60048036038101906101a99190611c1e565b61059c565b005b3480156101bc57600080fd5b506101d760048036038101906101d29190611c5e565b6106b4565b005b3480156101e557600080fd5b5061020060048036038101906101fb9190611c5e565b610714565b005b34801561020e57600080fd5b5061022960048036038101906102249190611b69565b610734565b6040516102369190611bd7565b60405180910390f35b34801561024b57600080fd5b5061026660048036038101906102619190611cb1565b6107e6565b6040516102739190611ced565b60405180910390f35b61029660048036038101906102919190611e9d565b61089e565b6040516102a39190611ced565b60405180910390f35b3480156102b857600080fd5b506102c1610938565b6040516102ce9190611b11565b60405180910390f35b3480156102e357600080fd5b506102fe60048036038101906102f99190611f8c565b6109ca565b005b34801561030c57600080fd5b506103276004803603810190610322919061206d565b6109e0565b005b34801561033557600080fd5b50610350600480360381019061034b9190611b69565b610a42565b60405161035d9190611b11565b60405180910390f35b34801561037257600080fd5b5061038d600480360381019061038891906120f0565b610b94565b60405161039a9190611a5d565b60405180910390f35b60007f80ac58cd000000000000000000000000000000000000000000000000000000007bffffffffffffffffffffffffffffffffffffffffffffffffffffffff1916827bffffffffffffffffffffffffffffffffffffffffffffffffffffffff1916148061046e57507f5b5e139f000000000000000000000000000000000000000000000000000000007bffffffffffffffffffffffffffffffffffffffffffffffffffffffff1916827bffffffffffffffffffffffffffffffffffffffffffffffffffffffff1916145b8061047e575061047d82610c28565b5b9050919050565b6060600080546104949061215f565b80601f01602080910402602001604051908101604052809291908181526020018280546104c09061215f565b801561050d5780601f106104e25761010080835404028352916020019161050d565b820191906000526020600020905b8154815290600101906020018083116104f057829003601f168201915b5050505050905090565b600061052282610c92565b610561576040517f08c379a000000000000000000000000000000000000000000000000000000000815260040161055890612203565b60405180910390fd5b6004600083815260200190815260200160002060009054906101000a900473ffffffffffffffffffffffffffffffffffffffff169050919050565b60006105a782610734565b90508073ffffffffffffffffffffffffffffffffffffffff168373ffffffffffffffffffffffffffffffffffffffff161415610618576040517f08c379a000000000000000000000000000000000000000000000000000000000815260040161060f90612295565b60405180910390fd5b8073ffffffffffffffffffffffffffffffffffffffff16610637610cfe565b73ffffffffffffffffffffffffffffffffffffffff161480610666575061066581610660610cfe565b610b94565b5b6106a5576040517f08c379a000000000000000000000000000000000000000000000000000000000815260040161069c90612327565b60405180910390fd5b6106af8383610d06565b505050565b6106c56106bf610cfe565b82610dbf565b610704576040517f08c379a00000000000000000000000000000000000000000000000000000000081526004016106fb906123b9565b60405180910390fd5b61070f838383610e9d565b505050565b61072f838383604051806020016040528060008152506109e0565b505050565b6000806002600084815260200190815260200160002060009054906101000a900473ffffffffffffffffffffffffffffffffffffffff169050600073ffffffffffffffffffffffffffffffffffffffff168173ffffffffffffffffffffffffffffffffffffffff1614156107dd576040517f08c379a00000000000000000000000000000000000000000000000000000000081526004016107d49061244b565b60405180910390fd5b80915050919050565b60008073ffffffffffffffffffffffffffffffffffffffff168273ffffffffffffffffffffffffffffffffffffffff161415610857576040517f08c379a000000000000000000000000000000000000000000000000000000000815260040161084e906124dd565b60405180910390fd5b600360008373ffffffffffffffffffffffffffffffffffffffff1673ffffffffffffffffffffffffffffffffffffffff168152602001908152602001600020549050919050565b60006108aa60076110f9565b60006108b6600761110f565b90506108c2888261111d565b6108cc81886112eb565b60006108d661135f565b905060006108e2611367565b9050827f04d538562b093fa165a793459f2e60480a7f8aac5f54cd4790de243f675fb65782848b8b8f8c8c604051610920979695949392919061252a565b60405180910390a28293505050509695505050505050565b6060600180546109479061215f565b80601f01602080910402602001604051908101604052809291908181526020018280546109739061215f565b80156109c05780601f10610995576101008083540402835291602001916109c0565b820191906000526020600020905b8154815290600101906020018083116109a357829003601f168201915b5050505050905090565b6109dc6109d5610cfe565b838361136f565b5050565b6109f16109eb610cfe565b83610dbf565b610a30576040517f08c379a0000000000000000000000000000000000000000000000000000000008152600401610a27906123b9565b60405180910390fd5b610a3c848484846114dc565b50505050565b6060610a4d82610c92565b610a8c576040517f08c379a0000000000000000000000000000000000000000000000000000000008152600401610a8390612601565b60405180910390fd5b6000600660008481526020019081526020016000208054610aac9061215f565b80601f0160208091040260200160405190810160405280929190818152602001828054610ad89061215f565b8015610b255780601f10610afa57610100808354040283529160200191610b25565b820191906000526020600020905b815481529060010190602001808311610b0857829003601f168201915b505050505090506000610b36611538565b9050600081511415610b4c578192505050610b8f565b600082511115610b81578082604051602001610b6992919061265d565b60405160208183030381529060405292505050610b8f565b610b8a8461154f565b925050505b919050565b6000600560008473ffffffffffffffffffffffffffffffffffffffff1673ffffffffffffffffffffffffffffffffffffffff16815260200190815260200160002060008373ffffffffffffffffffffffffffffffffffffffff1673ffffffffffffffffffffffffffffffffffffffff16815260200190815260200160002060009054906101000a900460ff16905092915050565b60007f01ffc9a7000000000000000000000000000000000000000000000000000000007bffffffffffffffffffffffffffffffffffffffffffffffffffffffff1916827bffffffffffffffffffffffffffffffffffffffffffffffffffffffff1916149050919050565b60008073ffffffffffffffffffffffffffffffffffffffff166002600084815260200190815260200160002060009054906101000a900473ffffffffffffffffffffffffffffffffffffffff1673ffffffffffffffffffffffffffffffffffffffff1614159050919050565b600033905090565b816004600083815260200190815260200160002060006101000a81548173ffffffffffffffffffffffffffffffffffffffff021916908373ffffffffffffffffffffffffffffffffffffffff160217905550808273ffffffffffffffffffffffffffffffffffffffff16610d7983610734565b73ffffffffffffffffffffffffffffffffffffffff167f8c5be1e5ebec7d5bd14f71427d1e84f3dd0314c0f7b2291e5b200ac8c7c3b92560405160405180910390a45050565b6000610dca82610c92565b610e09576040517f08c379a0000000000000000000000000000000000000000000000000000000008152600401610e00906126f3565b60405180910390fd5b6000610e1483610734565b90508073ffffffffffffffffffffffffffffffffffffffff168473ffffffffffffffffffffffffffffffffffffffff161480610e8357508373ffffffffffffffffffffffffffffffffffffffff16610e6b84610517565b73ffffffffffffffffffffffffffffffffffffffff16145b80610e945750610e938185610b94565b5b91505092915050565b8273ffffffffffffffffffffffffffffffffffffffff16610ebd82610734565b73ffffffffffffffffffffffffffffffffffffffff1614610f13576040517f08c379a0000000000000000000000000000000000000000000000000000000008152600401610f0a90612785565b60405180910390fd5b600073ffffffffffffffffffffffffffffffffffffffff168273ffffffffffffffffffffffffffffffffffffffff161415610f83576040517f08c379a0000000000000000000000000000000000000000000000000000000008152600401610f7a90612817565b60405180910390fd5b610f8e8383836115f6565b610f99600082610d06565b6001600360008573ffffffffffffffffffffffffffffffffffffffff1673ffffffffffffffffffffffffffffffffffffffff1681526020019081526020016000206000828254610fe99190612866565b925050819055506001600360008473ffffffffffffffffffffffffffffffffffffffff1673ffffffffffffffffffffffffffffffffffffffff1681526020019081526020016000206000828254611040919061289a565b92505081905550816002600083815260200190815260200160002060006101000a81548173ffffffffffffffffffffffffffffffffffffffff021916908373ffffffffffffffffffffffffffffffffffffffff160217905550808273ffffffffffffffffffffffffffffffffffffffff168473ffffffffffffffffffffffffffffffffffffffff167fddf252ad1be2c89b69c2b068fc378daa952ba7f163c4a11628f55a4df523b3ef60405160405180910390a4505050565b6001816000016000828254019250508190555050565b600081600001549050919050565b600073ffffffffffffffffffffffffffffffffffffffff168273ffffffffffffffffffffffffffffffffffffffff16141561118d576040517f08c379a00000000000000000000000000000000000000000000000000000000081526004016111849061293c565b60405180910390fd5b61119681610c92565b156111d6576040517f08c379a00000000000000000000000000000000000000000000000000000000081526004016111cd906129a8565b60405180910390fd5b6111e2600083836115f6565b6001600360008473ffffffffffffffffffffffffffffffffffffffff1673ffffffffffffffffffffffffffffffffffffffff1681526020019081526020016000206000828254611232919061289a565b92505081905550816002600083815260200190815260200160002060006101000a81548173ffffffffffffffffffffffffffffffffffffffff021916908373ffffffffffffffffffffffffffffffffffffffff160217905550808273ffffffffffffffffffffffffffffffffffffffff16600073ffffffffffffffffffffffffffffffffffffffff167fddf252ad1be2c89b69c2b068fc378daa952ba7f163c4a11628f55a4df523b3ef60405160405180910390a45050565b6112f482610c92565b611333576040517f08c379a000000000000000000000000000000000000000000000000000000000815260040161132a90612a3a565b60405180910390fd5b8060066000848152602001908152602001600020908051906020019061135a929190611906565b505050565b600043905090565b600034905090565b8173ffffffffffffffffffffffffffffffffffffffff168373ffffffffffffffffffffffffffffffffffffffff1614156113de576040517f08c379a00000000000000000000000000000000000000000000000000000000081526004016113d590612aa6565b60405180910390fd5b80600560008573ffffffffffffffffffffffffffffffffffffffff1673ffffffffffffffffffffffffffffffffffffffff16815260200190815260200160002060008473ffffffffffffffffffffffffffffffffffffffff1673ffffffffffffffffffffffffffffffffffffffff16815260200190815260200160002060006101000a81548160ff0219169083151502179055508173ffffffffffffffffffffffffffffffffffffffff168373ffffffffffffffffffffffffffffffffffffffff167f17307eab39ab6107e8899845ad3d59bd9653f200f220920489ca2b5937696c31836040516114cf9190611a5d565b60405180910390a3505050565b6114e7848484610e9d565b6114f3848484846115fb565b611532576040517f08c379a000000000000000000000000000000000000000000000000000000000815260040161152990612b38565b60405180910390fd5b50505050565b606060405180602001604052806000815250905090565b606061155a82610c92565b611599576040517f08c379a000000000000000000000000000000000000000000000000000000000815260040161159090612bca565b60405180910390fd5b60006115a3611538565b905060008151116115c357604051806020016040528060008152506115ee565b806115cd84611792565b6040516020016115de92919061265d565b6040516020818303038152906040525b915050919050565b505050565b600061161c8473ffffffffffffffffffffffffffffffffffffffff166118f3565b15611785578373ffffffffffffffffffffffffffffffffffffffff1663150b7a02611645610cfe565b8786866040518563ffffffff1660e01b81526004016116679493929190612c3f565b602060405180830381600087803b15801561168157600080fd5b505af19250505080156116b257506040513d601f19601f820116820180604052508101906116af9190612ca0565b60015b611735573d80600081146116e2576040519150601f19603f3d011682016040523d82523d6000602084013e6116e7565b606091505b5060008151141561172d576040517f08c379a000000000000000000000000000000000000000000000000000000000815260040161172490612b38565b60405180910390fd5b805181602001fd5b63150b7a0260e01b7bffffffffffffffffffffffffffffffffffffffffffffffffffffffff1916817bffffffffffffffffffffffffffffffffffffffffffffffffffffffff19161491505061178a565b600190505b949350505050565b606060008214156117da576040518060400160405280600181526020017f300000000000000000000000000000000000000000000000000000000000000081525090506118ee565b600082905060005b6000821461180c5780806117f590612ccd565b915050600a826118059190612d45565b91506117e2565b60008167ffffffffffffffff81111561182857611827611d12565b5b6040519080825280601f01601f19166020018201604052801561185a5781602001600182028036833780820191505090505b5090505b600085146118e7576001826118739190612866565b9150600a856118829190612d76565b603061188e919061289a565b60f81b8183815181106118a4576118a3612da7565b5b60200101907effffffffffffffffffffffffffffffffffffffffffffffffffffffffffffff1916908160001a905350600a856118e09190612d45565b945061185e565b8093505050505b919050565b600080823b905060008111915050919050565b8280546119129061215f565b90600052602060002090601f016020900481019282611934576000855561197b565b82601f1061194d57805160ff191683800117855561197b565b8280016001018555821561197b579182015b8281111561197a57825182559160200191906001019061195f565b5b509050611988919061198c565b5090565b5b808211156119a557600081600090555060010161198d565b5090565b6000604051905090565b600080fd5b600080fd5b60007fffffffff0000000000000000000000000000000000000000000000000000000082169050919050565b6119f2816119bd565b81146119fd57600080fd5b50565b600081359050611a0f816119e9565b92915050565b600060208284031215611a2b57611a2a6119b3565b5b6000611a3984828501611a00565b91505092915050565b60008115159050919050565b611a5781611a42565b82525050565b6000602082019050611a726000830184611a4e565b92915050565b600081519050919050565b600082825260208201905092915050565b60005b83811015611ab2578082015181840152602081019050611a97565b83811115611ac1576000848401525b50505050565b6000601f19601f8301169050919050565b6000611ae382611a78565b611aed8185611a83565b9350611afd818560208601611a94565b611b0681611ac7565b840191505092915050565b60006020820190508181036000830152611b2b8184611ad8565b905092915050565b6000819050919050565b611b4681611b33565b8114611b5157600080fd5b50565b600081359050611b6381611b3d565b92915050565b600060208284031215611b7f57611b7e6119b3565b5b6000611b8d84828501611b54565b91505092915050565b600073ffffffffffffffffffffffffffffffffffffffff82169050919050565b6000611bc182611b96565b9050919050565b611bd181611bb6565b82525050565b6000602082019050611bec6000830184611bc8565b92915050565b611bfb81611bb6565b8114611c0657600080fd5b50565b600081359050611c1881611bf2565b92915050565b60008060408385031215611c3557611c346119b3565b5b6000611c4385828601611c09565b9250506020611c5485828601611b54565b9150509250929050565b600080600060608486031215611c7757611c766119b3565b5b6000611c8586828701611c09565b9350506020611c9686828701611c09565b9250506040611ca786828701611b54565b9150509250925092565b600060208284031215611cc757611cc66119b3565b5b6000611cd584828501611c09565b91505092915050565b611ce781611b33565b82525050565b6000602082019050611d026000830184611cde565b92915050565b600080fd5b600080fd5b7f4e487b7100000000000000000000000000000000000000000000000000000000600052604160045260246000fd5b611d4a82611ac7565b810181811067ffffffffffffffff82111715611d6957611d68611d12565b5b80604052505050565b6000611d7c6119a9565b9050611d888282611d41565b919050565b600067ffffffffffffffff821115611da857611da7611d12565b5b611db182611ac7565b9050602081019050919050565b82818337600083830152505050565b6000611de0611ddb84611d8d565b611d72565b905082815260208101848484011115611dfc57611dfb611d0d565b5b611e07848285611dbe565b509392505050565b600082601f830112611e2457611e23611d08565b5b8135611e34848260208601611dcd565b91505092915050565b600080fd5b600080fd5b60008083601f840112611e5d57611e5c611d08565b5b8235905067ffffffffffffffff811115611e7a57611e79611e3d565b5b602083019150836001820283011115611e9657611e95611e42565b5b9250929050565b60008060008060008060808789031215611eba57611eb96119b3565b5b6000611ec889828a01611c09565b965050602087013567ffffffffffffffff811115611ee957611ee86119b8565b5b611ef589828a01611e0f565b955050604087013567ffffffffffffffff811115611f1657611f156119b8565b5b611f2289828a01611e47565b9450945050606087013567ffffffffffffffff811115611f4557611f446119b8565b5b611f5189828a01611e47565b92509250509295509295509295565b611f6981611a42565b8114611f7457600080fd5b50565b600081359050611f8681611f60565b92915050565b60008060408385031215611fa357611fa26119b3565b5b6000611fb185828601611c09565b9250506020611fc285828601611f77565b9150509250929050565b600067ffffffffffffffff821115611fe757611fe6611d12565b5b611ff082611ac7565b9050602081019050919050565b600061201061200b84611fcc565b611d72565b90508281526020810184848401111561202c5761202b611d0d565b5b612037848285611dbe565b509392505050565b600082601f83011261205457612053611d08565b5b8135612064848260208601611ffd565b91505092915050565b60008060008060808587031215612087576120866119b3565b5b600061209587828801611c09565b94505060206120a687828801611c09565b93505060406120b787828801611b54565b925050606085013567ffffffffffffffff8111156120d8576120d76119b8565b5b6120e48782880161203f565b91505092959194509250565b60008060408385031215612107576121066119b3565b5b600061211585828601611c09565b925050602061212685828601611c09565b9150509250929050565b7f4e487b7100000000000000000000000000000000000000000000000000000000600052602260045260246000fd5b6000600282049050600182168061217757607f821691505b6020821081141561218b5761218a612130565b5b50919050565b7f4552433732313a20617070726f76656420717565727920666f72206e6f6e657860008201527f697374656e7420746f6b656e0000000000000000000000000000000000000000602082015250565b60006121ed602c83611a83565b91506121f882612191565b604082019050919050565b6000602082019050818103600083015261221c816121e0565b9050919050565b7f4552433732313a20617070726f76616c20746f2063757272656e74206f776e6560008201527f7200000000000000000000000000000000000000000000000000000000000000602082015250565b600061227f602183611a83565b915061228a82612223565b604082019050919050565b600060208201905081810360008301526122ae81612272565b9050919050565b7f4552433732313a20617070726f76652063616c6c6572206973206e6f74206f7760008201527f6e6572206e6f7220617070726f76656420666f7220616c6c0000000000000000602082015250565b6000612311603883611a83565b915061231c826122b5565b604082019050919050565b6000602082019050818103600083015261234081612304565b9050919050565b7f4552433732313a207472616e736665722063616c6c6572206973206e6f74206f60008201527f776e6572206e6f7220617070726f766564000000000000000000000000000000602082015250565b60006123a3603183611a83565b91506123ae82612347565b604082019050919050565b600060208201905081810360008301526123d281612396565b9050919050565b7f4552433732313a206f776e657220717565727920666f72206e6f6e657869737460008201527f656e7420746f6b656e0000000000000000000000000000000000000000000000602082015250565b6000612435602983611a83565b9150612440826123d9565b604082019050919050565b6000602082019050818103600083015261246481612428565b9050919050565b7f4552433732313a2062616c616e636520717565727920666f7220746865207a6560008201527f726f206164647265737300000000000000000000000000000000000000000000602082015250565b60006124c7602a83611a83565b91506124d28261246b565b604082019050919050565b600060208201905081810360008301526124f6816124ba565b9050919050565b60006125098385611a83565b9350612516838584611dbe565b61251f83611ac7565b840190509392505050565b600060a08201905061253f600083018a611cde565b61254c6020830189611cde565b818103604083015261255f8187896124fd565b905061256e6060830186611bc8565b81810360808301526125818184866124fd565b905098975050505050505050565b7f45524337323155524953746f726167653a2055524920717565727920666f722060008201527f6e6f6e6578697374656e7420746f6b656e000000000000000000000000000000602082015250565b60006125eb603183611a83565b91506125f68261258f565b604082019050919050565b6000602082019050818103600083015261261a816125de565b9050919050565b600081905092915050565b600061263782611a78565b6126418185612621565b9350612651818560208601611a94565b80840191505092915050565b6000612669828561262c565b9150612675828461262c565b91508190509392505050565b7f4552433732313a206f70657261746f7220717565727920666f72206e6f6e657860008201527f697374656e7420746f6b656e0000000000000000000000000000000000000000602082015250565b60006126dd602c83611a83565b91506126e882612681565b604082019050919050565b6000602082019050818103600083015261270c816126d0565b9050919050565b7f4552433732313a207472616e73666572206f6620746f6b656e2074686174206960008201527f73206e6f74206f776e0000000000000000000000000000000000000000000000602082015250565b600061276f602983611a83565b915061277a82612713565b604082019050919050565b6000602082019050818103600083015261279e81612762565b9050919050565b7f4552433732313a207472616e7366657220746f20746865207a65726f2061646460008201527f7265737300000000000000000000000000000000000000000000000000000000602082015250565b6000612801602483611a83565b915061280c826127a5565b604082019050919050565b60006020820190508181036000830152612830816127f4565b9050919050565b7f4e487b7100000000000000000000000000000000000000000000000000000000600052601160045260246000fd5b600061287182611b33565b915061287c83611b33565b92508282101561288f5761288e612837565b5b828203905092915050565b60006128a582611b33565b91506128b083611b33565b9250827fffffffffffffffffffffffffffffffffffffffffffffffffffffffffffffffff038211156128e5576128e4612837565b5b828201905092915050565b7f4552433732313a206d696e7420746f20746865207a65726f2061646472657373600082015250565b6000612926602083611a83565b9150612931826128f0565b602082019050919050565b6000602082019050818103600083015261295581612919565b9050919050565b7f4552433732313a20746f6b656e20616c7265616479206d696e74656400000000600082015250565b6000612992601c83611a83565b915061299d8261295c565b602082019050919050565b600060208201905081810360008301526129c181612985565b9050919050565b7f45524337323155524953746f726167653a2055524920736574206f66206e6f6e60008201527f6578697374656e7420746f6b656e000000000000000000000000000000000000602082015250565b6000612a24602e83611a83565b9150612a2f826129c8565b604082019050919050565b60006020820190508181036000830152612a5381612a17565b9050919050565b7f4552433732313a20617070726f766520746f2063616c6c657200000000000000600082015250565b6000612a90601983611a83565b9150612a9b82612a5a565b602082019050919050565b60006020820190508181036000830152612abf81612a83565b9050919050565b7f4552433732313a207472616e7366657220746f206e6f6e20455243373231526560008201527f63656976657220696d706c656d656e7465720000000000000000000000000000602082015250565b6000612b22603283611a83565b9150612b2d82612ac6565b604082019050919050565b60006020820190508181036000830152612b5181612b15565b9050919050565b7f4552433732314d657461646174613a2055524920717565727920666f72206e6f60008201527f6e6578697374656e7420746f6b656e0000000000000000000000000000000000602082015250565b6000612bb4602f83611a83565b9150612bbf82612b58565b604082019050919050565b60006020820190508181036000830152612be381612ba7565b9050919050565b600081519050919050565b600082825260208201905092915050565b6000612c1182612bea565b612c1b8185612bf5565b9350612c2b818560208601611a94565b612c3481611ac7565b840191505092915050565b6000608082019050612c546000830187611bc8565b612c616020830186611bc8565b612c6e6040830185611cde565b8181036060830152612c808184612c06565b905095945050505050565b600081519050612c9a816119e9565b92915050565b600060208284031215612cb657612cb56119b3565b5b6000612cc484828501612c8b565b91505092915050565b6000612cd882611b33565b91507fffffffffffffffffffffffffffffffffffffffffffffffffffffffffffffffff821415612d0b57612d0a612837565b5b600182019050919050565b7f4e487b7100000000000000000000000000000000000000000000000000000000600052601260045260246000fd5b6000612d5082611b33565b9150612d5b83611b33565b925082612d6b57612d6a612d16565b5b828204905092915050565b6000612d8182611b33565b9150612d8c83611b33565b925082612d9c57612d9b612d16565b5b828206905092915050565b7f4e487b7100000000000000000000000000000000000000000000000000000000600052603260045260246000fdfea264697066735822122060a4a2e6d32fcc75c26fe43e2d02e65a056f80ba4f9cf08b81ceafd17280a0bb64736f6c63430008090033",
  "linkReferences": {},
  "deployedLinkReferences": {}
}